{
  "contractName": "TokenReceiver",
  "abi": [
    {
      "inputs": [],
      "name": "onERC721Received",
      "outputs": [
        {
          "internalType": "bytes4",
          "name": "",
          "type": "bytes4"
        }
      ],
      "stateMutability": "pure",
      "type": "function"
    },
    {
      "inputs": [],
      "name": "onERC1155Received",
      "outputs": [
        {
          "internalType": "bytes4",
          "name": "",
          "type": "bytes4"
        }
      ],
      "stateMutability": "pure",
      "type": "function"
    },
    {
      "inputs": [],
      "name": "onERC1155BatchReceived",
      "outputs": [
        {
          "internalType": "bytes4",
          "name": "",
          "type": "bytes4"
        }
      ],
      "stateMutability": "pure",
      "type": "function"
    }
  ],
  "bytecode": "0x6101ae610053600b82828239805160001a607314610046577f4e487b7100000000000000000000000000000000000000000000000000000000600052600060045260246000fd5b30600052607381538281f3fe730000000000000000000000000000000000000000301460806040526004361061004b5760003560e01c80633dae9a2b14610050578063a38d190d1461006e578063a8fcc4171461008c575b600080fd5b6100586100aa565b604051610065919061015d565b60405180910390f35b6100766100d2565b604051610083919061015d565b60405180910390f35b6100946100fa565b6040516100a1919061015d565b60405180910390f35b60007fbc197c819b3e337a6f9652dd10becd7eef83032af3b9d958d3d42f6694146621905090565b60007ff23a6e612e1ff4830e658fe43f4e3cb4a5f8170bd5d9e69fb5d7a7fa9e4fdf97905090565b60007f150b7a023d4804d13e8c85fb27262cb750cf6ba9f9dd3bb30d90f482ceeb4b1f905090565b60007fffffffff0000000000000000000000000000000000000000000000000000000082169050919050565b61015781610122565b82525050565b6000602082019050610172600083018461014e565b9291505056fea26469706673582212201d06ba1de05e136b8200bfb4bb4ffe92f9ef4dcee4bb45264f4a37cfc136d9a364736f6c63430008130033",
  "immutableReferences": {},
  "source": "// SPDX-License-Identifier: MIT\r\npragma solidity ^0.8.0;\r\n\r\nimport \"@openzeppelin/contracts/token/ERC721/IERC721Receiver.sol\";\r\nimport \"@openzeppelin/contracts/token/ERC1155/IERC1155Receiver.sol\";\r\n\r\nlibrary TokenReceiver {\r\n    function onERC721Received() external pure returns (bytes4) {\r\n        return bytes4(keccak256(\"onERC721Received(address,address,uint256,bytes)\"));\r\n    }\r\n\r\n    function onERC1155Received() external pure returns (bytes4) {\r\n        return bytes4(keccak256(\"onERC1155Received(address,address,uint256,uint256,bytes)\"));\r\n    }\r\n\r\n    function onERC1155BatchReceived() external pure returns (bytes4) {\r\n        return bytes4(keccak256(\"onERC1155BatchReceived(address,address,uint256[],uint256[],bytes)\"));\r\n    }\r\n}\r\n",
  "sourcePath": "C:\\Users\\cheny\\Documents\\GitHub\\MultiSigWallet\\contracts\\TokenReceiver.sol",
  "compiler": {
    "name": "solc",
    "version": "0.8.19+commit.7dd6d404.Emscripten.clang"
  },
  "schemaVersion": "3.4.13",
  "updatedAt": "2023-05-01T09:25:41.936Z",
  "devdoc": {
    "kind": "dev",
    "methods": {},
    "version": 1
  },
  "userdoc": {
    "kind": "user",
    "methods": {},
    "version": 1
  }
}